:020000040800F2
:100000009035002045010008D13A00089B310008D6
:10001000CD3A0008C30B0008A963000800000000E7
:100020000000000000000000000000004D58000823
:10003000590E00080000000031400008715D000802
:100040005F0100085F0100085F0100085F01000810
:100050005F0100085F0100085F0100085F01000800
:100060005F0100085F0100085F0100085F010008F0
:10007000CD0D0008DD0D0008ED0D0008FD0D000898
:100080000D0E00081D0E00085F0100085F0100084A
:100090005F0100085F0100085F0100085F010008C0
:1000A0005F0100085F0100085F0100085F010008B0
:1000B0005F0100085F0100085F0100085F010008A0
:1000C0005F0100085F0100085F0100085F01000890
:1000D0005F010008316300084163000851630008B4
:1000E0005F0100085F0100085F0100085F01000870
:1000F0005F0100085F0100085F0100085F01000860
:100100005F0100085F0100085F0100085F0100084F
:100110005F0100085F010008E15D0008F15D000873
:100120005F0100085F0100085F0100085F0100082F
:10013000DFF80CD000F0FCFC0048004769780008AC
:10014000903500200648804706480047FEE7FEE756
:10015000FEE7FEE7FEE7FEE7FEE7FEE7FEE7FEE777
:10016000DF5D0008310100082DE9F05F0546002041
:1001700092469B4688460646814640241BE0284618
:1001800041464746224600F051F853465A46C01AA7
:10019000914110D311461846224600F0ABFB2D1AB0
:1001A00067EB01084F4622460120002100F0A2FB28
:1001B00017EB00094E41201EA4F10104DFDC484684
:1001C00031462A464346BDE8F09F2DE9F041002420
:1001D000061B254671F1000605DA01240027D0EB45
:1001E000070067EB0101161E73F1000605DA002710
:1001F000D2EB0702012567EB0303FFF7B5FF864645
:100200000E4617469C46AC4204D00025D0EB050EA6
:1002100065EB010624B10020D2EB000760EB030C74
:10022000704631463A466346BDE8F081202A04DB39
:10023000203A21FA02F00021704721FA02F3D0405F
:10024000C2F120029140084319467047A0F16101B4
:10025000192900D82038704740EA01039B0703D0D2
:1002600009E008C9121F08C0042AFAD203E011F8F5
:10027000013B00F8013B521EF9D27047D2B201E0B7
:1002800000F8012B491EFBD270470022F6E710B59B
:1002900013460A4604461946FFF7F0FF204610BDF4
:1002A000F0B480EA0102D40F4200B2EB410F02D257
:1002B0000246084611464A0042D0C30DDDB2C1F3E2
:1002C000C752AD1A202D35DAC1F3160141F40002F0
:1002D00004B15242C5F1200602FA06F12A41104447
:1002E000B3EBD05F23D0C4B1012DA0EBC35009DC28
:1002F000F0BC4FF0004202EAC352DBB200F500004E
:1003000000F022BB400000F1807000EBC350A0F170
:10031000807040EAD170490009E0490841EAC071A3
:10032000A0EBC35000F50000400800EBC350F0BC48
:1003300000F001BB6142012202EB4101001BF6E724
:10034000F0BC704781F00041AAE780F00040A7E7C9
:1003500080EA010210B502F00043400022D04A00BA
:100360001FD0010E01EB1261C0F35600C2F356021A
:1003700040F4000042F40002A0FB022000047F3998
:10038000140400D0401C50EA124001D44000491E21
:10039000C2B20C0604EBD010401C4008802A02D0E8
:1003A00003E0002010BD20F00100002900DA002049
:1003B000184310BD30B480EA010202F0004530F06D
:1003C000004221F0004013D090B1C30DD40DC2F310
:1003D0001601C0F31600E41A41F4000140F40002D3
:1003E0007D34914201D3641C00E04900002C02DA04
:1003F00030BC002070474FF400000023914201D32D
:10040000891A034340084FEA4101F7D151B19142A3
:1004100002D14FF0004105E002D24FF0010101E0AE
:100420006FF0010103EBC450284430BC00F083BAE4
:100430002DE9FE4F804681EA0300C00F0C46009074
:1004400021F0004123F00045B8EB0200A94105D29C
:100450004046214690461C460B46024623F000408B
:10046000104347D0270DC7F30A00C3F30A51029087
:10047000401A019040286BDAC3F3130040F4801B4C
:100480000098924620B10023D2EB030A63EB0B0BDA
:1004900001985946C0F14002504600F02BFA06463A
:1004A0000D4650465946019A00F033FA10EB080009
:1004B0006141002487EA115284EAE7731A4340D06D
:1004C000009A62B3019A012A4FEA075215DC001B19
:1004D00061EB02014FF0004202EA0752CDE900420F
:1004E000001C41F5801132462B4600F06AFA03B039
:1004F000BDE8F08F40462146F9E7001B61EB0201A1
:10050000001C41F5801300185B412018A2F500176C
:1005100047EB030140EAD570B6196D4111E06D0853
:100520004FEA360645EAC0754FEA0752001B61EBF9
:100530000201001C41F5801149084FEA3000001902
:10054000514132462B4603B0BDE8F04F00F02ABAC5
:100550000098012240000023D0EB020263EBE0731D
:10056000009821464FEAE074B8EB000061EB04010B
:10057000E9E783F000435BE781F0004158E72DE9AC
:10058000FE4F81EA030404F0004421F0004100948E
:100590004FF0000B23F0004350EA01045ED052EA12
:1005A00003045BD0C3F30A54C1F30A552C44A4F2EC
:1005B000F3340194A0FB0254C1F3130141F4801100
:1005C000C3F3130343F4801301FB024400FB034E07
:1005D000840A970A44EA815447EA8357A4FB0768D0
:1005E00002958D0A05FB07854FEA932C04FB0C54FA
:1005F0002705029D4FEA065847EA1637B5EB08056E
:100600006EEB070C870E920E47EA811742EA8312BF
:10061000A7FB0201B6EB0B0164EB00042B0D43EAD0
:100620000C335E1844EB1C50DA465146E7FB0201DE
:10063000C5F313044FEA0B3343EA14534FEA043271
:10064000019C43EA0603A4F10C040294009CCDE94A
:1006500000B400F0B6F903B0BDE8F08F0020014609
:10066000F9E72DE9F04D81EA030404F0004B21F095
:10067000004514464FF0000A23F0004150EA0502FD
:1006800020D054EA01021DD0C5F30A570246C5F333
:100690001303C1F31300C1F30A5640F4801543F469
:1006A0008013A7EB0608101BD64608F2FD3873EB43
:1006B000050002D308F1010801E092185B41B8F18E
:1006C000000F03DA00200146BDE8F08D00204FF452
:1006D0008011064684460EE0171B73EB050705D311
:1006E000121B63EB050306434CEA010C49084FEA71
:1006F000300092185B4150EA0107EDD152EA030045
:1007000012D082EA040083EA0501084305D0101BD9
:10071000AB4106D20122002306E000224FF0004345
:1007200002E06FF0010253101AEB06004CEB085187
:1007300010EB0A0041EB0B01BDE8F04D00F032B9BF
:10074000C10F80EAE0700844CA079623002100F038
:10075000FBB896230022114600F0F6B80EB5C10F83
:1007600080EAE0700844CA07002140F233438DE874
:100770000E000A460B4600F024F903B000BD0EB58A
:1007800040F2334102910021CDE900110A460B46A7
:1007900000F017F903B000BD0EB540F233420292EB
:1007A0000022CDE90022134600F00BF903B000BD92
:1007B00000F0004220F00040C10DC0F3160040F4EC
:1007C00000007F2901DA00207047962903DCC1F17F
:1007D0009601C84001E096398840002AF4D0404292
:1007E000704720F00040C10DC0F3160040F4000037
:1007F0007F2901DA00207047962903DCC1F19601B8
:10080000C8407047963988407047C1F30A5210B506
:10081000C1F3130140F2FF3341F480119A4201DA2F
:10082000002010BD40F233439A42A2F2334203DC6F
:100830005242FFF7FBFC10BD904010BD00F000429B
:1008400030F000400AD0C10D01F56071C0F3160010
:1008500042EA0151C2084007114370470020014697
:100860007047000030B5041E71F1000404DB4FF046
:100870000044404264EB0101141E73F1000405DBE7
:100880001C464FF00043524263EB0403994208BFF9
:10089000904230BD01F0004330B421F0004150EAF5
:1008A000010206D00A0DA2F56072C1F31301002AFD
:1008B00002DC30BC00207047440F44EAC104C10090
:1008C000E01830BC00EBC25000F035B8002801DB66
:1008D000C0F10040002901DBC1F1004181427047B5
:1008E000002801DBC0F10040002901DBC1F100411B
:1008F00088427047202A04DB203A00FA02F10020E7
:1009000070479140C2F1200320FA03F3194390404D
:100910007047202A06DBCB17203A41FA02F043EA5F
:10092000E07306E041FA02F3D040C2F120029140A8
:100930000843194670470029A8BF7047401C49006A
:1009400008BF20F00100704710B4B0FA80FC00FA34
:100950000CF050EA010404BF10BC704749B1CCF15F
:10096000200421FA04F411FA0CF118BF01212143EB
:100970000843A3EB0C01CB1D4FEA00614FEA1020A6
:1009800042BF002010BC704700EBC3501044002948
:10099000A4BF10BC7047401C490008BF20F00100F4
:1009A00010BC704710B5141E73F1000408DA401C27
:1009B00041F1000192185B411A4301D120F001007E
:1009C00010BD2DE9F04D92469B4611B1B1FA81F26E
:1009D00002E0B0FA80F220329046FFF78BFF044627
:1009E0000F4640EA0A0041EA0B0153465A460843C3
:1009F00013D0114653EA010019D0C8F14002504605
:100A0000FFF714FC05460E46504659464246FFF78E
:100A100071FF084305D0012004E020463946BDE8B7
:100A2000F08D0020054346EAE0762C4337430A98D0
:100A30006305E40AA0EB08000022FD0A44EA4754DB
:100A40000A3002D500200146E9E701051019694185
:100A5000DDE9084500196941BDE8F04DA2E770B530
:100A600021F0004303430CD0C1F30A550024D5EB19
:100A7000040564EB0403D617AD1AB34102DB002072
:100A8000014670BD201841EB025170BD2DE9F04DBB
:100A900000231A461B1A8A4103DB00200146BDE8E9
:100AA000F08DC1F30A52C1F3130141F480154FF0E8
:100AB000000BD10702D100186D41521E00270446D9
:100AC00040F2FF11384601EB620A3E46804602467C
:100AD00000204FF48011FFF7A9FBC2197141BB1828
:100AE00046EB0100B4EB030C75EB000C04D3E41AE5
:100AF00065EB000517460E46241908F101006D410B
:100B000080463428E3DDF91946EB0600091BA841AD
:100B100003D24FF0FF32134601E0002213461BEBD5
:100B2000070046EB0A51BDE8F04DFFF73BBF000060
:100B3000064C074D06E0E06840F0010394E807002A
:100B400098471034AC42F6D3FFF7F6FA88830008D2
:100B5000A88300082DE9F05F81468A4615460027E4
:100B6000BB46002628E019F80700FFF76FFBC4B268
:100B7000302C01DB392C03DD412C1CDB462C1ADC2C
:100B8000412C02DBA4F1370001E0A4F1300000F0B9
:100B9000FF08BBF1000F08D03146761C48190178D8
:100BA000414401704FF0000B05E04FEA0870000E61
:100BB000A8554FF0010B7F1C5745D4D33046BDE8F4
:100BC000F09F00BFFEE710B502F016FC08B100F080
:100BD00001F810BD2DE9F04188B00024002600275F
:100BE000A046002500BF404A1289921F91B23E4A9A
:100BF0005268501C00F0E1F880463B4BDA681B89D4
:100C0000991E394B5B68581CFFF7A4FF81B2364828
:100C1000018203461A8A5968D86802F05BFF32499C
:100C20000881084640680679084641680089C01E68
:100C3000085C07022C4841680089801E085C384423
:100C400087B2474524D128484068407905022648A4
:100C500040688079284485B2284600F08BF8A8B116
:100C6000C5F30B05204800890A38B5EB400F0BD1BE
:100C70001D4800890A381D490880302E00DA08E036
:100C800003F07AF9044604E0092402E0032400E0BA
:100C90000224302E00DA23E00A2C21D0082C1FD0A9
:100CA00014B10021104801810F4B1B1D0FCBCDE962
:100CB0000623CDE9040110208DF80C0001208DF8E9
:100CC0000D0000208DF80E008DF80F40DDE90601C3
:100CD000CDE900010449087803A90EC902F00BFF11
:100CE00008B0BDE8F0810000F806002010000020E8
:100CF0002A21002108E0064800EB4100407808B1B5
:100D000008467047481CC1B22A29F4DB2A20F8E7BC
:100D10000C07002010B5002414B1052004F0BCFF1E
:100D200010BD00002A21002107E0064810F811003C
:100D300008B108467047481CC1B22A29F5DB2A20B1
:100D4000F8E700000C07002010B5002414B10620BD
:100D500004F0A2FF10BD10B502460B460021002092
:100D600000BF04E0545C0444A0B24C1CA1B2994200
:100D7000F8DB10BD10B502460021002302F00F0081
:100D80000144C2F303100144C2F3032001440846A6
:100D9000CC1701EB14742411A1EB0414E443641C7C
:100DA000E1B201F00F04104664F31F3003469A428B
:100DB00001D1012010BD0020FCE770B504460D46AE
:100DC0002946204602F036FC70BD000010B50248EE
:100DD00000F09AF910BD00004403002010B502484D
:100DE00000F092F910BD00000003002010B5024889
:100DF00000F08AF910BD00003402002010B502484E
:100E000000F082F910BD0000F001002010B502488A
:100E100000F07AF910BD00007802002010B50248F9
:100E200000F072F910BD0000BC02002030B590F84F
:100E300040500124AC40C56B6C600468636044683A
:100E4000102C04D10468A2600468E16003E0046827
:100E5000A1600468E26030BD704772B600BFFEE773
:100E60002DE9FF5F81468A4616461C46DDF838B0FC
:100E70000020039002900025BBF1030F02DC042C3C
:100E800000DC0CB9BDE8FF9F5846FFF778FC074629
:100E90003A460B460020134906F00EFDCDE900014D
:100EA000FFF7B3FC02900298FFF753FC80464946D7
:100EB000FFF74EFA0746FFF794FC0390002509E080
:100EC000E9000398C840C1B2601E401B0AF8001038
:100ED000681CC5B2A542F3DB30882044308000BFD7
:100EE000D0E700000000244001480078704700006F
:100EF00034000020014800787047000024000020E2
:100F00000146002291F82100022808D004208863BD
:100F100000BF002081F8200000BF01207047086852
:100F2000006820F00E000B6818600868006820F068
:100F300001000B68186091F8403001209840CB6B9D
:100F40005860012081F8210000BF002081F82000B6
:100F500000BF1046E2E7000070B50446002594F893
:100F60002100022803D00420A0630125C1E02068ED
:100F7000006820F00E00216808602068006820F0FA
:100F80000100216808605C492068884252D95A49AA
:100F900078392068884201D1012047E056496439F8
:100FA0002068884201D1102040E053495039206820
:100FB000884201D1801539E04F493C392068884288
:100FC00001D1801432E04C4928392068884202D18E
:100FD0004FF480302AE0484914392068884202D111
:100FE0004FF4801022E044492068884201D1400437
:100FF0001CE042492068884201D1012016E03F49A7
:1010000014312068884201D110200FE03B4928317B
:101010002068884201D1801508E038493C312068B9
:10102000884201D1801401E04FF480303349091F18
:10103000086051E0304978392068884201D10120A8
:1010400047E02D4964392068884201D1102040E0F2
:10105000294950392068884201D1801539E0264954
:101060003C392068884201D1801432E02249283975
:101070002068884202D14FF480302AE01E4914399A
:101080002068884202D14FF4801022E01A4920687B
:10109000884201D140041CE018492068884201D1EF
:1010A000012016E0154914312068884201D1102032
:1010B0000FE0124928312068884201D1801508E0EC
:1010C0000E493C312068884201D1801401E04FF480
:1010D0008030094980394860012084F8210000BF30
:1010E000002084F8200000BF606B10B12046616BC7
:1010F0008847284670BD0000800002400804024076
:101100000146886B7047000070B50446E06B0568C7
:101110002068066894F84010042088402840002881
:1011200075D006F004000028FAD02068006800F0AE
:10113000200028B92068006820F0040021680860B9
:10114000D5492068884254D9D349783920688842E3
:1011500001D1042049E0D04964392068884201D196
:10116000402042E0CC4950392068884201D1001526
:101170003BE0C9493C392068884202D14FF48040A5
:1011800033E0C54928392068884202D14FF48020D5
:101190002BE0C14914392068884202D14FF4800005
:1011A00023E0BD492068884201D1C0041DE0BB494D
:1011B0002068884201D1042017E0B8491431206822
:1011C000884201D1402010E0B4492831206888428B
:1011D00001D1001509E0B1493C312068884202D1B3
:1011E0004FF4804001E04FF48020AC49091F0860B3
:1011F00054E0A94978392068884201D104204AE0A6
:10120000A54964392068884202D1402043E04CE07F
:10121000A14950392068884201D100153BE09E4920
:101220003C392068884202D14FF4804033E09A492B
:1012300028392068884202D14FF480202BE096495B
:1012400014392068884202D14FF4800023E092498B
:101250002068884201D1C0041DE09049206888427E
:1012600001D1042017E08D4914312068884201D152
:10127000402010E0894928312068884201D10015BA
:1012800009E086493C312068884202D14FF4804011
:1012900001E04FF48020804980394860E06A0028EE
:1012A00002D02046E16A8847F4E094F8401002201A
:1012B00088402840002871D006F002000028FAD0AB
:1012C0002068006800F0200040B92068006820F025
:1012D0000A0021680860012084F821006E49206816
:1012E000884254D96C4978392068884201D102205B
:1012F00049E0694964392068884201D1202042E0F0
:10130000654950392068884201D140153BE0624967
:101310003C392068884202D14FF4005033E05E49E6
:1013200028392068884202D14FF400302BE05A4916
:1013300014392068884202D14FF4001023E0564946
:101340002068884201D180041DE054492068884209
:1013500001D1022017E0514914312068884201D19F
:10136000202010E04D4928312068884201D14015E5
:1013700009E04A493C312068884202D14FF40050CC
:1013800001E04FF400304549091F086054E042492C
:1013900078392068884202D102204AE057E03E496D
:1013A00064392068884201D1202042E03A4950390E
:1013B0002068884201D140153BE037493C3920681C
:1013C000884202D14FF4005033E033492839206875
:1013D000884202D14FF400302BE02F4914392068A5
:1013E000884202D14FF4001023E02B492068884244
:1013F00001D180041DE029492068884201D10220E2
:1014000017E0264914312068884201D1202010E0DD
:10141000224928312068884201D1401509E01F493E
:101420003C312068884202D14FF4005001E04FF473
:10143000003019498039486000BF002084F820003E
:1014400000BFA06A30B32046A16A884722E094F822
:101450004010082088402840E0B106F00800C8B1DC
:101460002068006820F00E002168086094F84010A1
:1014700001208840E16B48600120A06384F82100CE
:1014800000BF002084F8200000BF206B10B1204670
:10149000216B884770BD00008000024008040240B4
:1014A0000146002209B9012070471E4B0868984286
:1014B0000BD21D4B0868C01A1423B0FBF3F0800058
:1014C000086419480838C8630AE0164B0868C01A4F
:1014D0001423B0FBF3F08000086412480838C86396
:1014E000022081F821000868026843F6F070824308
:1014F000D1E901031843CB6818430B6918434B69C2
:1015000018438B691843CB6918430243086802608B
:1015100000208863012081F82100002081F820004C
:1015200000BFC1E708040240080002402DE9F04175
:1015300004460D4616461F464FF0000800BF94F8BB
:101540002000012802D10220BDE8F081012084F8AA
:10155000200000BF94F8210001282CD1022084F83B
:1015600021000020A0632068006820F001002168AD
:1015700008603B46324629462046FFF757FCE06AA2
:1015800030B12068006840F00E00216808600BE070
:101590002068006820F00400216808602068006866
:1015A00040F00A00216808602068006840F00100EF
:1015B0002168086006E000BF002084F8200000BF1A
:1015C0004FF002084046BFE770B5044600F0C0F98E
:1015D00006462546681C10B104480078054400BF43
:1015E00000F0B6F9801BA842FAD370BD08000020B5
:1015F0002DE9F847024600239C467BE14FF00108A5
:1016000008FA03F4D1F8008008EA0400A0427DD172
:10161000DFF8F4A2D1F80480A8EB0A09D0453AD04B
:1016200014DCB8F1030F50D009DCB8F1000F31D051
:10163000B8F1010F1CD0B8F1020F49D120E0B8F188
:10164000110F18D0B8F1120F42D11EE0B9F5881F62
:1016500025D006DCB9F5803F20D0B9F5801F37D101
:101660001AE0B9F5001F18D0B9F5041F30D117E002
:10167000D1F80CC02DE0D1F80C8008F1040C28E062
:10168000D1F80C8008F1080C23E0D1F80C8008F1A7
:101690000C0C1EE000BF00BF00BF00BF00BF00BFBA
:1016A000D1F80880B8F1000F02D14FF0040C0BE024
:1016B000D1F80880B8F1010F03D14FF0080C146184
:1016C00002E04FF0080C546103E04FF0000C00E022
:1016D00000BF00BFFF2801D8904601E002F10408D6
:1016E0004646FF2802D84FEA830803E0A3F1080822
:1016F0004FEA88084746D6F800804FF00F0909FAEC
:1017000007F928EA09080CFA07F900E07AE048EA44
:101710000908C6F80080D1F8048008F08058B8F1B4
:10172000805F6FD100BFDFF8E481D8F8188048F0FF
:101730000108DFF8D891C9F81880C846D8F8188091
:1017400008F00108CDF8008000BF00BF4FEAB938AB
:101750004FEA930958F829504FEA83784FEA1879ED
:101760004FF00F0808FA09F825EA0805DFF8A0810C
:10177000424502D14FF0000824E0DFF8988142454D
:1017800002D14FF001081DE0DFF88C81424502D103
:101790004FF0020816E0DFF88481424502D14FF095
:1017A00003080FE0DFF87881424502D14FF00408CA
:1017B00008E0DFF87081424502D14FF0050801E0F2
:1017C0004FF006084FEA83794FEA197908FA09F8C9
:1017D00048EA0505DFF850814FEA930948F8295097
:1017E000D1F8048008F48038B8F5803F0BD1DFF8D9
:1017F0003C81D8F8008048EA0008DFF83091C9F849
:1018000000800AE075E0DFF82481D8F8008028EA3B
:101810000008DFF81891C9F80080D1F8048008F4B6
:101820000038B8F5003F0ED1DFF8008108F1040858
:10183000D8F8008048EA0008DFF8F09009F10409C0
:10184000C9F800800DE0DFF8E48008F10408D8F85A
:10185000008028EA0008DFF8D49009F10409C9F8EB
:101860000080D1F8048008F48018B8F5801F0ED1EC
:10187000DFF8B88008F10808D8F8008048EA0008C6
:10188000DFF8A89009F10809C9F800800DE0DFF839
:101890009C8008F10808D8F8008028EA0008DFF8E2
:1018A0008C9009F10809C9F80080D1F8048008F487
:1018B0000018B8F5001F0ED1DFF8708008F10C0891
:1018C000D8F8008048EA0008DFF8609009F10C09B8
:1018D000C9F800800DE0DFF8548008F10C08D8F852
:1018E000008028EA0008DFF8449009F10C09C9F8E3
:1018F00000805B1CD1F8008028FA03F8B8F1000FD3
:101900007FF47CAEBDE8F8870000111000100240A3
:1019100000080140000C014000100140001401408B
:1019200000180140001C0140080001400004014073
:1019300010B5C26821EA020302EA010443EA044343
:10194000036110BD0AB1016101E00B04036170473E
:10195000014800687047000000000020034800684C
:1019600003490978084401490860704700000020D5
:101970000800002010B50848006840F01000064933
:101980000860032000F0A8F80F2000F007F800F02E
:101990002BF8002010BD00000020024070B5044666
:1019A0000E4800784FF47A71B1FBF0F00C490968E9
:1019B000B1FBF0F5284600F0C4FD08B1012070BD70
:1019C000102C07D200222146501E00F047F805488F
:1019D000046001E00120F2E70020F0E708000020A9
:1019E0000C0000200400002008B500BF11488069E9
:1019F00040F001000F4988610846806900F001004D
:101A0000009000BF00BF00BF0846C06940F0805092
:101A1000C8610846C06900F08050009000BF00BF58
:101A200000BF0549486820F0E06040F00070486061
:101A300000BF08BD001002400000014001460846FA
:101A4000002809DB00F01F0301229A4043099B0094
:101A500003F1E023C3F8002100BF70472DE9F05FD8
:101A600080460D461646002705F056FE07463946C5
:101A70002A46334601F00700C0F1070ABAF1040F05
:101A800002D94FF0040A01E0C0F1070AD14600F183
:101A9000040ABAF1070F02D24FF0000A01E0A0F1E8
:101AA000030AD4464FF0010A0AFA09FAAAF1010A18
:101AB0000AEA020A0AFA0CFA4FF0010B0BFA0CFBC5
:101AC000ABF1010B0BEA030B4AEA0B04214640463B
:101AD00005F02AFEBDE8F09F00BF00F00702064BAC
:101AE00019684FF6FF031940044B0B4343EA0221E8
:101AF000014B196000BF70470CED00E00000FA05D3
:101B000070B504460D460CB9012070BD5A480068F6
:101B100000F00700A8420ED25748006820F00700E6
:101B20002843554908600846006800F00700A842AD
:101B300001D00120E9E7207800F0020002281DD141
:101B4000207800F00400042805D14C48406840F497
:101B5000E0604A494860207800F00800082805D174
:101B60004648406840F460504449486043484068F3
:101B700020F0F000A168084340494860207800F058
:101B8000010078B36068012806D13C48006800F481
:101B9000003090B90120B8E76068022806D13748C4
:101BA000006800F0007040B90120AEE733480068DB
:101BB00000F0020008B90120A7E73048406820F093
:101BC0000300616808432D494860FFF7C1FE0646DF
:101BD00009E0FFF7BDFE801B41F28831884202D93F
:101BE000032092E707E02548406800F00C00616898
:101BF000B0EB810FEDD12048006800F00700A8424B
:101C00000ED91D48006820F0070028431A490860D3
:101C10000846006800F00700A84201D0012074E7E0
:101C2000207800F00400042807D11448406820F40C
:101C3000E060E168084311494860207800F008003E
:101C4000082808D10D48406820F46050216940EA16
:101C5000C1000A49486000F03FF808494968C1F3EB
:101C60000311074A515CC8400649086006480068ED
:101C7000FFF794FE002048E70020024000100240D9
:101C8000DC8200080C0000200400002001480068ED
:101C9000704700000C00002000B5FFF7F7FF044973
:101CA0004968C1F30221034A515CC84000BD0000ED
:101CB00000100240EC82000800B5FFF7E7FF04497E
:101CC0004968C1F3C221034A515CC84000BD00000D
:101CD00000100240EC820008F0B585B00FF26C0CE9
:101CE0009CE8E01001A8A0E8E0101CA52D68009574
:101CF00000210022002300240020194D696801F012
:101D00000C05F5B1042D02D0082D19D101E01548BC
:101D100019E001ADC1F38346AC5D01F4803555B1E6
:101D20000F4D6D68C5F340451DF805200D4D654309
:101D3000B5FBF2F302E00C4D04FB05F3184602E09C
:101D400000BF084800BF00BF05B0F0BD0203040596
:101D5000060708090A0B0C0D0E0F101001020000F7
:101D60000010024000127A0000093D00F8B5044658
:101D70000CB90120F8BD207800F00100002878D0CF
:101D8000F848406800F00C0004280CD0F548406882
:101D900000F00C00082811D1F248406800F48030AF
:101DA000B0F5803F0AD1EF48006800F40030002809
:101DB0005FD0606800285CD10120DBE700BF60686D
:101DC000B0F5803F06D1E748006840F48030E5492F
:101DD000086028E0606858B9E248006820F4803064
:101DE000E04908600846006820F4802008601AE096
:101DF0006068B0F5A02F0BD1DA48006840F480206D
:101E0000D84908600846006840F4803008600AE05D
:101E1000D448006820F48030D24908600846006841
:101E200020F48020086000BF606888B1FFF790FD53
:101E3000054606E0FFF78CFD401B642801D903200E
:101E400098E7C848006800F400300028F2D010E09D
:101E5000FFF77EFD054606E0FFF77AFD401B64288C
:101E600001D9032086E7BF48006800F4003000284D
:101E7000F2D1207800F00200022857D1B94840681A
:101E800000F00C0050B1B748406800F00C00082882
:101E900018D1B448406800F4803098B9B14800685F
:101EA00000F0020020B12069012801D0012061E783
:101EB000AC48006820F0F800616940EAC100A94917
:101EC000086033E02069E8B10120A7490860FFF706
:101ED0003FFD054606E0FFF73BFD401B022801D908
:101EE000032047E79F48006800F002000028F2D076
:101EF0009C48006820F0F800616940EAC1009949F7
:101F0000086013E0002098490860FFF721FD0546AE
:101F100006E0FFF71DFD401B022801D9032029E739
:101F20009048006800F002000028F2D1207800F00C
:101F3000080008282DD1A069B8B101208B4908609C
:101F4000FFF706FD054606E0FFF702FD401B0228ED
:101F500001D903200EE78348406A00F00200002800
:101F6000F2D0012002F066F813E000207F490860FB
:101F7000FFF7EEFC054606E0FFF7EAFC401B0228EF
:101F800001D90320F6E67748406A00F002000028F5
:101F9000F2D1207800F00400042873D100277148A2
:101FA000C06900F0805070B900BF6E48C06940F051
:101FB00080506C49C8610846C06900F080500090AC
:101FC00000BF00BF01276A48006800F48070B0B904
:101FD0006748006840F4807065490860FFF7B8FC06
:101FE000054606E0FFF7B4FC401B642801D9032036
:101FF000C0E65F48006800F480700028F2D000BF9F
:10200000E068012806D15748006A40F001005549B0
:10201000086227E0E06858B95248006A20F00100E1
:10202000504908620846006A20F00400086219E07E
:10203000E06805280BD14B48006A40F0040049498C
:1020400008620846006A40F0010008620AE045485C
:10205000006A20F00100434908620846006A20F047
:102060000400086200BFE068A0B1FFF771FC0546FC
:1020700009E0FFF76DFC401B41F28831884202D92C
:10208000032077E622E03748006A00F002000028CB
:10209000EFD012E0FFF75CFC054608E0FFF758FCC4
:1020A000401B41F28831884201D9032062E62D4865
:1020B000006A00F002000028F0D1012F05D1294864
:1020C000C06920F080502749C86100BFE069C8B3EB
:1020D0002448406800F00C00082860D0E06902281D
:1020E00048D1002020490866FFF732FC054606E08B
:1020F000FFF72EFC401B022801D903203AE61948BD
:10210000006800F000700028F2D1206AB0F5803F2E
:1021100007D11448406820F40030A16808431149F1
:102120004860D4E9080108430E49496821F4741154
:1021300008430C49486001200B490866FFF708FC7A
:10214000054607E03DE0FFF703FC401B022801D9EC
:1021500003200FE60348006800F000700028F2D06A
:102160002FE0000000100240000042428004424282
:1021700000700040002014490866FFF7E9FB05469F
:1021800006E0FFF7E5FB401B022801D90320F1E53B
:102190000E48006800F000700028F2D111E0E069FC
:1021A000012800D1E6E50948466806F48031206A36
:1021B000814204D106F47011606A814201D001208D
:1021C000D8E50020D6E500000000424200100240A1
:1021D00010B504460CB9012010BD606A38B96068BA
:1021E000B0F5827F00D105E00021E16102E000212D
:1021F000216161610021A16294F8510028B9002099
:1022000084F85000204600F043F8022084F8510082
:102210002068006820F0400021680860A08800F471
:102220008270218901F404410843A18901F400610D
:102230000843217C01F002010843217D01F00101E6
:102240000843218B01F400710843217F01F038011C
:1022500008432021095D01F080010843218D01F42C
:1022600000510843216808600421A06901EA104078
:10227000216848602068C06920F400602168C86156
:1022800000206065012084F851000020A4E70000D0
:1022900010B586B00446002002900390049005908B
:1022A0001A49206888422FD100BF1948C06940F4FC
:1022B00080401749C8610846C06900F48040019019
:1022C00000BF00BF00BF0846806940F00800886179
:1022D0000846806900F00800019000BF00BF4FF47D
:1022E00020400290022003900320059002A9094893
:1022F000FFF77EF94FF48040029000200390049095
:1023000002A90448FFF774F906B010BD0038004078
:1023100000100240000C01402DE9FF5F0446884692
:1023200091461D460E9E012002900020019000BFA4
:1023300094F85000012803D1022004B0BDE8F09FBA
:10234000012084F8500000BFFFF702FB074694F815
:1023500051B060680390AA46BBF1010F0BD00398FF
:10236000B0F5827F04D1A06810B9BBF1040F02D090
:1023700002200190DBE0B8F1000F03D0B9F1000FAB
:1023800000D015B901200190D1E094F85100042843
:1023900002D0052084F8510000206065C4F8389010
:1023A000E587A587C4F83080E586A586206460644B
:1023B0002068006800F04000402805D020680068D0
:1023C00040F0400021680860E068B0F5006F4AD135
:1023D000606810B1BAF1010F09D1206B0088216843
:1023E000C860206B801C2063E08E401EE08633E0D6
:1023F0002068806800F00200022810D1E08E70B1E1
:10240000029801280BD1206B00882168C860206BDE
:10241000801C2063E08E401EE08600200290206831
:10242000806800F0010068B1E08F58B12068C06892
:10243000A16B0880A06B801CA063E08F401EE0872A
:1024400001200290FFF784FAC01BB04204D3701C35
:1024500010B1032001906AE0E08E0028C8D1E08F1F
:102460000028C5D14AE0606810B1BAF1010F09D166
:10247000206B007821680873206B401C2063E08E7D
:10248000401EE08634E02068806800F002000228E8
:1024900010D1E08E70B1029801280BD1206B00782A
:1024A00021680873206B401C2063E08E401EE0868C
:1024B000002002902068806800F0010068B1E08F81
:1024C00058B12068C068A16B0870A06B401CA06365
:1024D000E08F401EE08701200290FFF739FAC01B11
:1024E000B04201D3701C00B916B9032001901EE060
:1024F000E08E0028C7D1E08F0028C4D13A4631468B
:10250000204603F023F920B10120019020206065CE
:102510000DE0A06850B900BF002000902068C0689E
:10252000009020688068009000BF00BF00BF0120BD
:1025300084F8510000BF002084F8500000BF0198CB
:10254000FBE670B504462546681EB0F1807F01D3D6
:1025500001200FE0681E4FF0E02148610F214FF08D
:10256000FF3005F0E1F800204FF0E02188610720FE
:102570000861002070BD70477047000030B502460A
:102580000B4600BF92F83C00012801D1022030BD6B
:10259000012082F83C0000BF022082F83D00106854
:1025A00044681068816824F0700418680443106857
:1025B0004460144D1068A84213D0134D1068A8420F
:1025C0000FD01068B0F1804F0BD0104D1068A842AA
:1025D00007D00F4D1068A84203D00E4D1068A842D6
:1025E00005D121F080015868014310688160012005
:1025F00082F83D0000BF002082F83C0000BF00BF11
:10260000C5E70000002C01400034014000040040F8
:1026100000080040000C004010B504460CB9012031
:1026200010BD94F83D0028B9002084F83C002046F5
:1026300000F026F8022084F83D00211D206803F0F8
:10264000DFFB012084F8460000BF84F83E00012132
:102650003F200155402001554120015500BF00BFDA
:10266000012084F8420043200155442001554520B3
:10267000015500BF012084F83D000020D0E7000094
:1026800038B504461A492068884216D100BF194857
:10269000C06940F010001749C8610846C06900F0E1
:1026A0001000009000BF00BF002211463620FFF747
:1026B000D5F93620FFF7C2F919E00F4920688842A2
:1026C00015D100BF0B48C06940F020000949C8611E
:1026D0000846C06900F02000009000BF00BF002243
:1026E00011463720FFF7BAF93720FFF7A7F938BDB1
:1026F000001000400010024000140040014691F814
:102700003D00012801D001207047022081F83D00E2
:102710000868C06840F001000B68D860164B086874
:10272000984213D0154B086898420FD00868B0F152
:10273000804F0BD0124B0868984207D0114B0868A5
:10274000984203D0104B086898420CD10868806802
:1027500000F00702062A0CD00868006840F001006B
:102760000B68186005E00868006840F001000B681D
:1027700018600020C8E70000002C01400034014030
:102780000004004000080040000C0040704710B5F5
:10279000044620680069C0F34000D8B12068C068D2
:1027A000C0F34000B0B16FF0020021680861012061
:1027B00020772068806900F0030018B12046FFF7F9
:1027C000E5FF05E0204600F0ADF8204600F0ABF84C
:1027D0000020207720680069C0F38000D8B120680D
:1027E000C068C0F38000B0B16FF0040021680861D8
:1027F000022020772068806900F4407018B12046DC
:10280000FFF7C4FF05E0204600F08CF8204600F0FA
:102810008AF80020207720680069C0F3C000D8B192
:102820002068C068C0F3C000B0B16FF00800216834
:102830000861042020772068C06900F0030018B107
:102840002046FFF7A3FF05E0204600F06BF8204686
:1028500000F069F80020207720680069C0F30010BC
:10286000D8B12068C068C0F30010B0B16FF010009C
:1028700021680861082020772068C06900F4407052
:1028800018B12046FFF782FF05E0204600F04AF825
:10289000204600F048F8002020772068006900F00A
:1028A000010058B12068C06800F0010030B16FF03D
:1028B000010021680861204600F036F820680069B0
:1028C000C0F3C01058B12068C068C0F3C01030B168
:1028D0006FF08000216808612046FFF74CFE2068F9
:1028E0000069C0F3801058B12068C068C0F3801040
:1028F00030B16FF0400021680861204600F036F8E2
:1029000020680069C0F3401058B12068C068C0F367
:10291000401030B16FF02000216808612046FFF7B9
:102920002BFE10BD704770470C49884205D10C49F9
:10293000C968491C0A4AD1600EE00A4988420BD195
:102940000949D1F8B016491C074AC2F8B016044923
:102950000969491C024A116170470000DC0000202F
:10296000B808002094000020500A00207047F8B5F5
:1029700004460E46174694F83E0020282ED106B194
:102980000FB90120F8BD00BF94F83C00012801D127
:102990000220F7E7012084F83C0000BF20633A469C
:1029A0003146204603F048FC0546ADB9206B0128AE
:1029B00011D100BF002000902068006800902068BE
:1029C0004068009000BF00BF2068C06840F0100061
:1029D0002168C86000E001252846D3E70220D1E73E
:1029E00070B504460D4694F83E00202822D11249C5
:1029F0002068884207D111488580C8220168204696
:102A0000FFF7B5FF16E00E492068884207D10D4850
:102A10008580C82201682046FFF7A9FF0AE00A491D
:102A20002068884206D1094885800A22016820462C
:102A3000FFF79DFF70BD000000380140BC0600207C
:102A400000440040CC06002000480040DC06002086
:102A500010B504462068C06820F490702168C860F2
:102A60002068406920F0010021684861206B01283E
:102A700005D12068C06820F010002168C860206877
:102A8000406900F04000B8B12068406920F0400083
:102A900021684861A06B78B10020A16B4863A06BEE
:102AA000FEF72EFA40B1A06BFEF72AFB202803D1D7
:102AB00010202064032010BD0020E085202084F831
:102AC0003E000020206300BFF5E7000010B504467B
:102AD00010492068884206D10F48C8220168204664
:102AE000FFF745FF14E00D492068884206D10C48E5
:102AF000C82201682046FFF73AFF09E0094920682B
:102B0000884205D108480A2201682046FFF72FFFB6
:102B100010BD000000380140BC0600200044004009
:102B2000CC06002000480040DC0600202DE9F84FCC
:102B30000446206805682068C668206847694FF029
:102B40000009CA4605F00F09B9F1000F0AD105F0D6
:102B5000200038B106F0200020B1204603F07BFAB7
:102B6000BDE8F88FB9F1000F71D007F0010018B976
:102B700006F4907000286AD005F0010030B106F428
:102B8000807018B1206C40F00100206405F0040052
:102B900030B107F0010018B1206C40F00200206451
:102BA00005F0020030B107F0010018B1206C40F0D0
:102BB0000400206405F0080048B106F0200010B9B8
:102BC00007F0010018B1206C40F008002064206C70
:102BD00068B305F0200028B106F0200010B12046AF
:102BE00003F039FA20684069C0F3801A206C00F0C5
:102BF000080010B9BAF1000F22D0204603F0F6F910
:102C00002068406900F04000B0B12068406920F0C1
:102C1000400021684861A06B50B15648A16B4863E1
:102C2000A06BFEF799F910B1A06B416B88470CE0DF
:102C30002046FFF74BFF08E02046FFF747FF04E080
:102C40002046FFF743FF0020206489E7FFE7206B61
:102C5000012878D105F01000002874D006F010008B
:102C6000002870D000BF002000902068006800900D
:102C700020684068009000BF00BF2068406900F0F5
:102C80004000C0B3A06B006840681FFA80F8B8F13C
:102C9000000F2FD0A08D40452CDDA4F82E80A06B16
:102CA000806920281FD02068C06820F480702168C7
:102CB000C8602068406920F00100216848612068F0
:102CC000406920F0400021684861202084F83E00DF
:102CD000002020632068C06820F010002168C860D0
:102CE000A06BFEF70DF9A08DE28D801A81B220460F
:102CF000FFF776FE34E7FFE7A08DE18D401A1FFA5B
:102D000080F8E08DE8B1B8F1000F1AD02068C068F3
:102D100020F490702168C8602068406920F00100AC
:102D200021684861202084F83E000020206320684C
:102D3000C06820F010002168C86041462046FFF7B7
:102D40004FFE0DE7FFE705F0800030B106F0800090
:102D500018B1204603F0BCFA02E705F0400030B19C
:102D600006F0400018B1204603F05BF9F8E600BF1A
:102D7000F6E60000BD5E000810B504460CB901205F
:102D800010BDA06900B100E000BF94F83D0028B973
:102D9000002084F83C00204600F028F8242084F825
:102DA0003D002068C06820F400502168C8602046BB
:102DB00003F0C4F92068006920F49040216808619C
:102DC0002068406920F02A00216848612068C068B6
:102DD00040F400502168C86000202064202084F85E
:102DE0003D0084F83E000020CAE7000010B586B020
:102DF000044600200290039004900590A8492068A2
:102E000088426BD100BFA748806940F48040A54943
:102E100088610846806900F48040019000BF00BFCF
:102E200000BF0846806940F0040088610846806958
:102E300000F00400019000BF00BF4815029002207E
:102E400003900320059002A99748FEF7D1FB4FF4A9
:102E500080600290002003900120049002A9924813
:102E6000FEF7C6FB914892490860002048600021A7
:102E70008F4881608021C1600021016141618161D1
:102E8000C161FEF70DFB08B1FDF7E7FF00BF884801
:102E9000A063446200BF854814388649086010204A
:102EA00048600021834881608021C1600021016168
:102EB00041618161C161FEF7F3FA08B1FDF7CDFF11
:102EC00000BF7C486063446200BF00221146252099
:102ED000FEF7C4FD2520FEF7B1FDDFE0764920684E
:102EE00088426BD100BF6F48C06940F400306D4923
:102EF000C8610846C06900F40030019000BF00BFFF
:102F000000BF0846806940F0040088610846806977
:102F100000F00400019000BF00BF042002900220D6
:102F200003900320059002A95F48FEF761FB08208B
:102F30000290002003900120049002A95A48FEF755
:102F400057FB5A4814305D49086000204860002152
:102F50005A4881608021C160002101614161816125
:102F6000C161FEF79DFA08B1FDF777FF00BF534836
:102F7000A063446200BF4D482830514908601020CA
:102F8000486000214E4881608021C16000210161BC
:102F900041618161C161FEF783FA08B1FDF75DFF10
:102FA00000BF47486063446200BF002211462620EC
:102FB000FEF754FD2620FEF741FD6FE041492068F1
:102FC00088426BD100BF3748C06940F48020354942
:102FD000C8610846C06900F48020019000BF00BFAE
:102FE00000BF0846806940F0080088610846806993
:102FF00000F00800019000BF00BF081502900220F9
:1030000003900320059002A92F48FEF7F1FA4FF430
:1030100000600290002003900120049002A92A4839
:10302000FEF7E6FA21482838284908600020486061
:103030000021264881608021C16000210161416139
:103040008161C161FEF72CFA08B1FDF706FF00BFF0
:103050001E48A063446200BF14483C381C49086005
:103060001020486000211A4881608021C160002141
:10307000016141618161C161FEF712FA08B1FDF79A
:10308000ECFE00BF12486063446200BF002211469C
:103090002720FEF7E3FC2720FEF7D0FC06B010BD8A
:1030A0000038014000100240000801405800024072
:1030B000F00100203402002000440040780200208B
:1030C000BC02002000480040000C0140000300202A
:1030D0004403002070477047F7B50446154694F83E
:1030E0003D0020283DD1019800B10DB90120FEBD61
:1030F00000BF94F83C00012801D10220F7E701202D
:1031000084F83C0000BF01982062A584E58400207B
:103110002064212084F83D001348616B88621348C5
:10312000616BC8621248616B08630020616B486381
:1031300001AE23681A1D31682B46606BFEF7F6F965
:103140006FF040002168086000BF002084F83C0058
:1031500000BF2068406940F080002168486100207D
:10316000C5E70220C3E70000A95F0008DF5F000891
:10317000D15E000810B5044605492068884205D193
:1031800004480A2201682046FFF7F1FB10BD000049
:1031900000480040DC060020704700BFFEE700004A
:1031A000F0B585B007460D46164614220FA16846B5
:1031B000FDF752F8002410E0385D694601EB20105D
:1031C000007806F81400385D00F00F001DF80000CC
:1031D000012101EB44017054641CAC42ECD300208B
:1031E00006F81500680005B0F0BD0000303132333C
:1031F00034353637383941424344454600000000F3
:103200000146002021295AD014DC212972D2DFE89E
:1032100001F03D3E3F404142434445464748494A0C
:103220004B4C4D4E4F5051525354717171717171DD
:103230007171550030294FD00BDCA1F122020C2A0C
:1032400058D2DFE802F03D3E3F404142434445460C
:103250004748422946D00CDC352940D004DC3129CE
:103260003BD0322946D139E0402939D0412941D1DA
:1032700037E0452939D004DC432934D0442939D1F9
:1032800032E07F2932D0EA2934D130E000BF00BFDC
:1032900000BF00BF00BF00BF00BF00BF00BF00BF36
:1032A00000BF00BF00BF00BF00BF00BF00BF00BF26
:1032B00000BF00BF00BF00BF00BF00BF00BF00BF16
:1032C00000BF00BF00BF00BF00BF00BF00BF00BF06
:1032D00000BF00BF00BF00BF00BF00BF00BF00BFF6
:1032E00000BF00BF00BF00BF00BF00BF00BF012084
:1032F00001E0FFE700BF00BF704701460020F7294B
:1033000062D01CDCA1F1CA022D2A72D2DFE802F0E1
:1033100040464748494A4B4C4D4E4F5051525354EA
:103320005556575859715A71717171717171717126
:103330007171717171717171717171715B0040F2B4
:103340000313CA1A99424BD00BDCA1F1F8020B2AE5
:103350004FD2DFE802F03A3B3C3D3E3F4041424322
:103360004400062A42D006DC062A42D2DFE802F0F8
:1033700041393A3B3C3D802A0DD004DC7D2A08D0FF
:103380007F2A36D106E09A2A06D0BC2A31D104E041
:1033900000BF00BF00BF00BF00BF00BF00BF00BF35
:1033A00000BF00BF00BF00BF00BF00BF00BF00BF25
:1033B00000BF00BF00BF00BF00BF00BF00BF00BF15
:1033C00000BF00BF00BF00BF00BF00BF00BF00BF05
:1033D00000BF00BF00BF00BF00BF00BF00BF00BFF5
:1033E00000BF00BF00BF00BF00BF00BF012001E061
:1033F000FFE700BF00BF70470748406800787E289D
:1034000008D1054841680089401E085C0D2801D19B
:10341000012070470020FCE7F806002010B50024CA
:1034200016488088002811DD144B9A881968144BBF
:103430005868FCF711FF114881881148018100206C
:103440000F4908700D498880012415E00D488088D7
:10345000002811DD0B4B9A881968094B5868FCF756
:10346000FBFE084881880648018101200449087054
:103470000020044988800124204610BDBC0600209D
:10348000F8060020CC06002010B518210348FCF7F0
:10349000FCFE0321002002F00DFA10BD8808002078
:1034A0000FB59DF800000003054908600548406815
:1034B0009DF8001008440003014948600FBD00005A
:1034C000140000206007002070B504460D46002659
:1034D000052C02D0062C0AD104E0284600F010F892
:1034E000012605E0284600F025F8012600E000BF8F
:1034F00000BF304670BD10B500F010F810BD0000E0
:10350000052101700349416003498160B021818137
:1035100070470000F7340008D807002010B5B0212C
:103520000148FCF7B2FE10BDD807002010B500F02E
:103530000FF810BD06210170034941600349816005
:103540006C218181704700002D3500086C07002038
:1035500010B56C210148FCF798FE10BD6C070020E7
:1035600010B554210248FCF790FEFFF7D7FF10BDBD
:103570000C07002002480021016041608160704713
:10358000EC06002010B5C8211C48FCF77EFEC821BF
:103590001B48FCF77AFE1B480021016041608160F6
:1035A000C16016481749086015488860C821164848
:1035B000FCF76BFEC8211548FCF767FE1448002194
:1035C000016041608160C1600F48114908600F4887
:1035D00088600A210F48FCF758FE0F48002101605F
:1035E000416001810D48016041608160C16009480E
:1035F0000A4908600848886010BD00008803002060
:1036000050040020BC06002018050020E005002022
:10361000CC060020A8060020B2060020DC06002010
:1036200010B5FFF7AFFFFFF7A5FFFFF799FFFFF713
:103630002BFF10BD70B504460D46002629462046D6
:10364000FDF789FB0646F043401C80B270BD0000C8
:1036500070B504460D46314800EBC400407820B1F7
:10366000012814D0022851D141E02C4901EBC401BA
:10367000081DC82102F012FC40B10121204602F0D1
:103680001FF90120254901EBC401487044E023499A
:1036900001EBC401081DC82102F000FC00B30021A9
:1036A000204602F00DF92DB900201C4901EBC401A0
:1036B00048701BE0194800EBC4008078401CC0B281
:1036C000164901EBC4018870A8420ADB00201349A7
:1036D00001EBC40188700220104901EBC40148705D
:1036E00004E000200D4901EBC401487014E00B49CF
:1036F00001EBC401081D4FF47A7102F0CFFB20B139
:103700000020064901EBC401487005E00020034990
:1037100001EBC401487000BF00BF70BD88080020E5
:1037200010B5002400BF2EE0184810F83400062819
:1037300026D2DFE800F0030C151A1F2400212046D2
:1037400002F0BEF80520114901F8340018E001210B
:10375000204602F0B5F805200C4901F834000FE0CE
:1037600000212046FFF774FF0AE001212046FFF701
:103770006FFF05E002212046FFF76AFF00E000BF6F
:1037800000BF601CC4B2032CCEDB10BD8808002033
:103790001FB56846FFF7B4FE9DE80F0002F0DAF9A6
:1037A000FDF7B8FA1FBD1FB56846FFF7C3FE9DE8D9
:1037B0000F0002F0CFF9FDF7C7FA1FBD08B500BF33
:1037C0001E48406940F001001C49486108464069B4
:1037D00000F00100009000BF00BF002211460C2045
:1037E000FEF73CF90C20FEF729F9002211460D20C6
:1037F000FEF734F90D20FEF721F9002211460E20C4
:10380000FEF72CF90E20FEF719F9002211460F20C1
:10381000FEF724F90F20FEF711F9002211461020BF
:10382000FEF71CF91020FEF709F9002211461120BD
:10383000FEF714F91120FEF701F908BD001002404F
:1038400000B585B00020019002900390049000BF65
:103850002848806940F0040026498861084680694C
:1038600000F00400009000BF00BF00BF0846806960
:1038700040F0080088610846806900F00800009068
:1038800000BF00BF0022C0211B48FEF75BF80122E9
:1038900041F201011948FEF755F801224FF4C051D9
:1038A0001548FEF74FF8C020019001200290022039
:1038B00003900320049001A90F48FDF799FE41F2FF
:1038C000010001900120029003900320049001A9BF
:1038D0000A48FDF78DFE4FF4C05001900120029080
:1038E00003900320049001A90348FDF781FE05B071
:1038F00000BD00000010024000080140000C014023
:1039000010B50E480E4908604FF4827048600021DF
:103910000B488160C16002210161012141614902BE
:1039200081610021C1610162416281620A21C1623B
:10393000FEF74EFC08B1FDF790FA10BD00380040CC
:103940003C0000201CB50020009001901048114957
:10395000086041F6FF00486000210E48816040F297
:10396000CF71C16000218161FEF756FE08B1FDF7FD
:1039700074FA00200090019069460648FEF7FEFDAB
:1039800008B1FDF76AFA0348FEF7B8FE1CBD000057
:1039900000100040940000201CB500200090019011
:1039A00010481149086041F6FF00486000210E48A8
:1039B000816041F26F71C16000218161FEF72CFED0
:1039C00008B1FDF74AFA00200090019069460648C8
:1039D000FEF7D4FD08B1FDF740FA0348FEF78EFE6E
:1039E0001CBD000000140040DC00002010B50E4893
:1039F0000E4908604FF41650486000210B48816062
:103A0000C16001610C21416100218161C161FFF749
:103A1000B3F908B1FDF721FA0548C8220168034847
:103A2000FEF7A5FF10BD0000003801402401002072
:103A3000BC06002010B50E480E4908604FF4165021
:103A4000486000210B488160C16001610C21416127
:103A500000218161C161FFF78FF908B1FDF7FDF920
:103A60000548C82201680348FEF781FF10BD000029
:103A70000044004068010020CC06002010B510482A
:103A8000104908604FF4965048604FF480510D483B
:103A900081600021C1604FF4806101610C214161AE
:103AA00000218161C161FFF767F908B1FDF7D5F920
:103AB00005480A2201680348FEF759FF10BD0000BF
:103AC00000480040AC010020DC06002000BFFEE7FB
:103AD00000BFFEE770B506460C4615467E202070F6
:103AE0002A463146601CFCF7B7FB0D21681C2154A7
:103AF000A81C80B270BD0FB42DE9FC41074600261A
:103B00000024002001900025BDF82C100C9A0A9882
:103B1000FFF746FB81B2ADF83410BDF8340000F079
:103B200091F806460625BDF82C00401E284484B2B4
:103B300006E0611B0A98405C0A990855601E84B231
:103B4000002CF6DC9DF824000A9908709DF82500E9
:103B50000A9948709DF8260038B942200A99887061
:103B60009DF827000A99C87000E000BF00BF300A26
:103B70000A9908710A994E71BDF82C00801D81B216
:103B8000ADF82C10BDF82C100C9A0A98FFF708FB22
:103B900081B2ADF83410BDF834100C98FDF70DF972
:103BA0000190BDF834000C990A1801210DF10500AF
:103BB000FFF7F6FA0146BDF83400084481B2ADF8CB
:103BC0003410BDF834000C990A18012101A8FFF740
:103BD000E7FA0146BDF83400084481B2ADF834106C
:103BE0000125BDF83400401E284484B205E0611B65
:103BF0000C98415C0155601E84B2002CF7DC7E21DC
:103C00000C980170BDF83400401C81B2ADF834103E
:103C10000D21BDF834000C9A1154BDF83400401C3D
:103C200081B2ADF834100CA90AA802F093F80D98EF
:103C3000009038460AA90EC901F00AFEBDE8FC0151
:103C40005DF814FB002100F00F021144C0F30312D1
:103C50001144C0F3032211440A46CB1701EB13733E
:103C60001B11A1EB0313DB435B1CD9B201F00F0363
:103C7000024663F31F321046704700007CB50024F3
:103C800000250020019007250190B6484068007982
:103C9000F0380C287ED2DFE800F006FEFDFCFB22A7
:103CA000FAF9F8F7F6F5FDF71FF902280DD1FDF73F
:103CB00021F9022809D10021AA48BDF80430C268C0
:103CC000581C80B20190D15408E00121A548BDF8EC
:103CD0000430C268581C80B20190D1543BE10320EB
:103CE000A04A0090D268BDF80430D1189E4A04233F
:103CF000106801AAFDF7B4F803209A4A0090D26830
:103D0000BDF80430D118984A0423506801AAFDF781
:103D1000A7F80320934A0090D268BDF80430D11868
:103D2000914A0423906801AAFDF79AF88E48D0E9D9
:103D300004211046FCF7AEFD06460320009089489A
:103D4000C068BDF804208118042301AA3046FDF79D
:103D500087F80320834A0090D268BDF80430D11858
:103D6000814A0423106801AAFDF77AF803207D4AEE
:103D70000090D268BDF80430D1187B4A0423506803
:103D800001AAFDF76DF80320764A0090D268BDF8CD
:103D9000043000E0DEE0D118734A0423906901AAE0
:103DA000FDF75EF803206F4A0090D268BDF804303A
:103DB000D1186D4A0423D06901AAFDF751F80320F8
:103DC000684A0090D268BDF80430D118674A0423CD
:103DD000106801AAFDF744F80320624A0090D268F7
:103DE000BDF80430D118614A0423506801AAFDF7D8
:103DF00037F803205B4A0090D268BDF80430D11830
:103E00005A4A0423906801AAFDF72AF80320554A6C
:103E10000090D268BDF80430D118544A0423D06809
:103E200001AAFDF71DF803204E4A0090D268BDF8A4
:103E30000430D1184D4A0423106801AAFDF710F888
:103E40000320484A0090D268BDF80430D118474A90
:103E50000423506801AAFDF703F80320414A0090AB
:103E6000D268BDF80430D118404A0423106901AA71
:103E7000FCF7F6FF03203B4A0090D268BDF80430FF
:103E8000D11809E056E051E04CE047E042E01AE08A
:103E900015E010E00BE006E0344A0423506901AA63
:103EA000FCF7DEFF57E0002001F01AFA53E0012092
:103EB00001F016FA4FE0022001F012FA4BE0032065
:103EC00001F00EFA47E00020294A106050600021FE
:103ED000083211605160A2F1980188870021A2F197
:103EE0009800C1870020A2F19801C1F8A00000212C
:103EF000A2F19800C0F8A4100020A2F19801C1F826
:103F0000A8000021A2F19800C0F8AC10052001F033
:103F1000C3FE20E0002003F095F91CE0012003F02F
:103F200091F918E0022003F08DF914E0032003F06A
:103F300089F910E000200F49C86500210D4801668D
:103F400000200C49486600210A488166062001F0DD
:103F5000A3FE00E000BF00BFBDF8041001480182CD
:103F600020467CBDF8060020180A0020A00800208A
:103F7000680800206C07002010B5002400212B48A1
:103F8000018240680079502804D0284840680079B0
:103F900051281FD125484068C078422818D12348AD
:103FA00040680079512839D120484068407810286D
:103FB0000CD11E4840688078002805DD1B48406809
:103FC0008078FF2800DA29E0062427E0012425E094
:103FD000082423E015484068807801281DD1134843
:103FE000406800794F2806D110484068C0784228C0
:103FF00014D0082412E00D484068407810280AD1F7
:104000000A484068C078422803D1FFF737FE0446CB
:1040100004E0082402E0012400E00A2403490C31F2
:10402000A1F1080001F096FE204610BDF806002020
:104030007047000008B508490968C9084FF47A724A
:10404000B1FBF2F14143009100BF00BF00994A1E4D
:1040500000920029F9D108BD0C00002070B50024A1
:104060004148C0684149C96890FBF1F63046FCF709
:1040700067FB05464FF07E51FCF728FC15D23A4805
:10408000C068C0433849C8600846C068C0F30F2004
:10409000374908850846408D3349097BC1F3031130
:1040A00040EA01203249488503242F4840682F49BF
:1040B000496890FBF1F63046FCF742FB05464FF0AD
:1040C0007E51FCF703FC14D227484068C0432649C0
:1040D000486008464068C0F30F2025498884084698
:1040E000408D21490979C1F30311084320494885CE
:1040F00003241D4880681D49896890FBF1F630460D
:10410000FCF71EFB05464FF07E51FCF7DFFB15D296
:1041100015488068C0431449886008468068C0F329
:104120000F201349C8840846408D0F49097AC1F30E
:10413000031140EA01100E49488503240C48018D03
:104140000C4881860A48818C0A4801860848C18C3F
:10415000084841860648418D0648C186052001F081
:104160009BFD204670BD000088090020D00900207A
:1041700004110020D807002010B54422224923480A
:10418000FCF76AF82148C068C0F30F202049088571
:104190000846408D1D49097BC1F3031140EA012007
:1041A0001B49488519484068C0F30F208884084699
:1041B000408D16490979C1F3031108431449488514
:1041C00012488068C0F30F20C8840846408D0F490C
:1041D000097AC1F3031140EA01100D4948850846E8
:1041E000018D0C4881860A48818C0A48018608485E
:1041F000C18C084841860648418D0648C186052085
:1042000001F04AFD10BD0000D009002088090020FF
:1042100004110020D80700202DE9F04100BF1C4800
:104220004068C51704461A484068C1172246A0FBDB
:10423000026701FB047105FB00153446200A40EAC1
:104240000560C04300B21349488311488068C51710
:1042500004460F488068C1172246A0FB023701FBC5
:10426000047105FB00151C46200A40EA0560C043A6
:1042700000B2084988830846418B0748C184054835
:10428000818B05480185052001F006FDBDE8F08120
:10429000D009002004110020D807002010B5022406
:1042A0000E48007930B1012808D002280AD003282E
:1042B00010D10BE000F0A4FA04460CE000F068FA1C
:1042C000044608E000F03CF8044604E000F03EFA42
:1042D000044600E000BF00BF204610BD2C000020B7
:1042E00010B508494868FCF72BFA044621460648F1
:1042F000FCF760F80549C1F88400052001F0CCFC0A
:1043000010BD0000D00900200000F041D8070020B7
:1043100010B508498868FCF713FA04462146064898
:10432000FCF748F80549C1F88800052001F0B4FC05
:1043300010BD0000D00900200000F041D807002087
:1043400010B502241048407910B1012817D106E0B9
:10435000022000F0E7FA01200B49487110E042F614
:10436000E061094801F09AFD40B1FFF7B9FF00F0A4
:104370000DF8FFF7CDFF00F0F9F8002400E000BFD2
:1043800000BF204610BD00002C0000202DE9F04F9A
:1043900087B0002006908246834633490868334937
:1043A000FBF7D6FF0446FCF71CFA06900698FCF7CC
:1043B000E6F9CDE904010698FCF7E1F9CDE9000141
:1043C0002B494869FCF7CAF980460022294BFCF7C3
:1043D000D6F80646DDE90023FCF7CBF8CDE902016B
:1043E000DDE90423FCF73DF90446FCF753FA824665
:1043F00051464FF07E50FBF753FF0446214650468E
:10440000FBF7D8FF834659460020FBF79BFF834606
:1044100000215846FCF764FA0BD24FF08E41584603
:10442000FBF796FF0446FCF7C3F900B21249488136
:104430000FE04FF08E415846FBF78AFF05464FF0DC
:104440008F41FBF72DFF0446FCF7B2F900B20A4991
:104450004881094841890948C182052001F01CFCB6
:1044600007B0BDE8F08F0000180A00200000F041FE
:10447000D0090020E033D43E04110020D8070020EA
:104480002DE9F04F87B00020069005900490324847
:10449000B0F90A00002808DD2F49B1F90A00C11758
:1044A00000EB5141C913059109E02B49B1F90A10FC
:1044B000A1F58030C11700EB5141C9130591274A7E
:1044C00051681068FBF744FF0446FCF78AF9069030
:1044D0000599481CFCF742F904460D4620494869F5
:1044E000FCF73CF9CDE900010698FCF748F9804655
:1044F00000221C4BFCF7B5F80646DDE90023FCF76B
:1045000038F822462B46CDE90201FCF7AAF882468C
:10451000FCF7C0F9049000210498FCF7E1F906D2F9
:104520000498FCF745F900B20B4948820AE04FF0C5
:104530008F410498FBF7B4FE0446FCF739F900B24A
:10454000054948820448418A0748C183052001F093
:10455000A3FB07B0BDE8F08F04110020180A00206B
:10456000D0090020E033D43ED80700202DE9F04FD9
:1045700087B0002006908246834633490868334955
:10458000FBF7E6FE0446FCF72CF906900698FCF7CC
:10459000F6F8CDE904010698FCF7F1F8CDE9000141
:1045A0002B498869FCF7DAF880460022294BFBF793
:1045B000E6FF0646DDE90023FBF7DBFFCDE902015C
:1045C000DDE90423FCF74DF80446FCF763F9824665
:1045D00051464FF07E50FBF763FE0446214650469D
:1045E000FBF7E8FE834659460020FBF7ABFE834607
:1045F00000215846FCF774F90BD24FF08E41584613
:10460000FBF7A6FE0446FCF7D3F800B212498881F6
:104610000FE04FF08E415846FBF79AFE05464FF0EB
:104620008F41FBF73DFE0446FCF7C2F800B20A4991
:1046300088810948818909480183052001F02CFB04
:1046400007B0BDE8F08F0000180A00200000F0411C
:10465000D0090020E033D43E04110020D807002008
:104660002DE9F04F87B00020069005900490324865
:10467000B0F90C00002808DD2F49B1F90C00C11772
:1046800000EB5141C913059109E02B49B1F90C1018
:10469000A1F58030C11700EB5141C9130591274A9C
:1046A000116A1068FBF754FE0446FCF79AF806906E
:1046B0000599481CFCF752F804460D4620498869C4
:1046C000FCF74CF8CDE900010698FCF758F8804655
:1046D00000221C4BFBF7C5FF0646DDE90023FBF774
:1046E00048FF22462B46CDE90201FBF7BAFF82467E
:1046F000FCF7D0F8049000210498FCF7F1F806D2FA
:104700000498FCF755F800B20B4988820AE04FF094
:104710008F410498FBF7C4FD0446FCF749F800B24A
:10472000054988820448818A07480184052001F0F0
:10473000B3FA07B0BDE8F08F04110020180A00207A
:10474000D0090020E033D43ED807002010B5022461
:104750000E48407910B1012813D106E0032000F083
:10476000E1F80120094948710CE042F6E061074890
:1047700001F094FB20B1FFF783FEFFF771FF0024E7
:1047800000E000BF00BF204610BD00002C0000204C
:1047900010B502240D48407910B1012811D106E06E
:1047A000022000F0BFF80120084948710AE042F6F3
:1047B000E061064801F072FB10B100F009F8002436
:1047C00000E000BF00BF204610BD00002C0000200C
:1047D00010B50849C868FBF7B3FF044621460648F0
:1047E000FBF7E8FD0549C1F88000052001F054FA07
:1047F00010BD0000D009002000007042D807002042
:1048000010B5022425484079052842D2DFE800F09F
:10481000030A192D3700002000F084F801201F49F9
:10482000487137E042F6E0611C4801F037FB38B1CF
:10483000FFF7A2FC012000F075F80220174948712B
:1048400028E042F6E061154801F028FB60B1FFF76F
:1048500005FC18B904201149487105E0012000F059
:1048600061F803200D49487114E042F6E0610B48FD
:1048700001F014FB10B10420084948710AE042F627
:10488000E061064801F00AFB10B1FFF7C5FC002407
:1048900000E000BF00BF204610BD00002C0000203B
:1048A0002DE9FE4307460E4614464FF00308002547
:1048B000A9468DF8007000BF04E0715D681C0DF81A
:1048C0000010C5B2601EA842F7DC21466846FCF71E
:1048D00042FAC04300F0FF09601E305C484501D138
:1048E0004FF000084046BDE8FE83000010B50C48BC
:1048F000007810B101280ED106E0042000F012F873
:1049000002200749087007E0FFF7C8FC10B9002033
:104910000349087000E000BF00BF00F0E3F810BDDD
:104920003400002070B505460024052D00DB70BD65
:10493000002000F03BF8204484B2052D2CD2DFE8A3
:1049400005F0201A140E0300072000F02FF8204471
:1049500084B2082000F02AF8204484B200BF062068
:1049600000F024F8204484B200BF052000F01EF8B7
:10497000204484B200BF042000F018F8204484B220
:1049800000BF012000F012F8204484B2022000F0A1
:104990000DF8204484B200E000BF00BFE0430249AC
:1049A000088000BFC3E700003600002070B5044651
:1049B0000025092C01DB284670BDE52000F024FE0F
:1049C000092C29D2DFE804F005090D1115191D2164
:1049D0002500FA2000F018FE1FE000F095FC0546C7
:1049E0001BE000F0F9FD054617E000F0C5FD0546A7
:1049F00013E000F03FFD05460FE000F06DFD0546B9
:104A00000BE000F09BFD054607E000F0C7FD054602
:104A100003E000F07FFD00E000BF00BFDC2000F0FD
:104A2000F3FD2846C8E700002DE9F0430546884617
:104A300016464FF00009002400272846FEF7E0FB49
:104A400010B90320BDE8F0830EB1042E01DD032070
:104A5000F8E7002708E018F80700711EC91BC90015
:104A600088400443781CC7B2B742F4DB242D03D03E
:104A7000222D01D0232D03D104F4000000B1002425
:104A8000A5F120000E2826D2DFE800F01F220A132D
:104A900007250D1625102519251C1148C4631BE098
:104AA0000F48446318E00E48446415E00C48046560
:104AB00012E00B4884630FE0094884640CE0084866
:104AC000846509E00648046606E005490C8603E0B3
:104AD0000348448600E000BF00BF4846B2E700003C
:104AE000041100202DE9F04F8DB000200A900B90AA
:104AF0000C908246182104A8FBF7C7FB0020009009
:104B00000190029003908346C821FE4801F0C6F947
:104B100000287DD0242000F08DFA8DF82800222076
:104B200000F088FA8DF82900262000F083FA8DF82D
:104B30002A00292000F07EFA8DF82B00202000F0BA
:104B400079FA8DF82C00232000F074FA8DF82D00EE
:104B5000272000F06FFA8DF82E002B2000F06AFA63
:104B60008DF82F00212000F065FA8DF830002D20FF
:104B700000F060FA8DF8310000BF0EE00AA810F8CE
:104B80000A00032805D1002000F0C8FE0DB0BDE8E2
:104B9000F08F0AF1010000F0FF0ABAF10A0FEDDB15
:104BA000D948006E00F4803050B9D748B0F86000A2
:104BB00080B2D6490988884202D0002000F0AEFEBB
:104BC00041F28831CF48001D01F068F950B1CE485C
:104BD000008ECF498887CC48418ECD48C1870520BB
:104BE00001F05AF8C848006D78B1C9489030D0E952
:104BF0000030C549096D591840F10000C44A90328F
:104C0000C2E90010052001F047F8BF48806D00E0C0
:104C100047E178B1BE499831D1E90020BA49896DA0
:104C2000511840F10000BA4A9832C2E9001005203C
:104C300001F032F8B34991F8AC1601EB0112B14919
:104C4000083101EB82004422AF493031FBF704FB0D
:104C5000AC4890F8AC06401CC0B2AA4981F8AC063A
:104C6000192806DB002081F8AC060121A948FCF7D1
:104C70005FFE4FF0000A4AE00AEB0A12A148083032
:104C800000EB8200DDE90431C068C21718185141F9
:104C9000CDE904010AEB0A119A48083000EB8100C3
:104CA000DDE906434168CA17611843EB0200CDE90C
:104CB00006100AEB0A129349083101EB8201DDE983
:104CC00008308968CA1759185041CDE908100AEB15
:104CD0000A128C49083101EB8201DDE90030496993
:104CE000CA1759185041CDE900100AEB0A1285483D
:104CF000083000EB8200DDE902318069C217181824
:104D00005141CDE902010AF1010000F0FF0ABAF1B8
:104D1000190FB1DB19220023DDE904412046FBF71E
:104D200023FA7D49C86019220023DDE906412046A7
:104D3000FBF71AFA7849486019220023DDE9084197
:104D40002046FBF711FA7449886019220023DDE937
:104D500000412046FBF739FA6F49486119220023C8
:104D6000DDE902412046FBF730FA6B498861C868EB
:104D7000FBF7E6FC04466648D0F880102046FBF7B7
:104D8000E7FA6649086064494868FBF7D9FC0446BD
:104D90005F48D0F884102046FBF7DAFA5F49486094
:104DA0005D494869FBF7DAFC064600225C4BFBF7DD
:104DB000E6FB0446FBF76EFD584988605448903086
:104DC000D0E900211046FBF7E7FC04460022554BD2
:104DD000FBF747FC514AC2E904014B49486BFBF71A
:104DE000AFFC06464849C86BFBF7AAFC0746484893
:104DF000D0F880103846FBF7ABFA05463146FBF792
:104E0000A7FA04464248D0F884102046FBF7A0FADF
:104E10004249886140498868FBF792FC04463C4857
:104E2000D0F888102046FBF793FA3C4908623A49CB
:104E30008869FBF793FC06460022394BFBF79FFB82
:104E40000446FBF727FD3549486231489830D0E9E0
:104E500000211046FBF7A0FC04460022314BFBF773
:104E600000FC2E4AC2E90A012749886BFBF768FC5F
:104E700006462549C86BFBF763FC07462448D0F873
:104E800080103846FBF764FA05463146FBF760FAB6
:104E900004461F48D0F888102046FBF759FA1F49EE
:104EA00008631848D0F8B00600287DD01548D0F81F
:104EB000B006401E1349C1F8B00618498869FBF7CF
:104EC000BDFC8046184A194BFBF759FB06460022E9
:104ED000174BFBF7C6FB0446FBF7DCFC83460C498B
:104EE000D1F8A4005946FBF7DBF90949C1F8A40041
:104EF000D1F8A400FBF7A2FC044600220D4BFBF7FF
:104F0000B1FC19E0500A00200411002036000020F6
:104F1000D8070020000C0140D0090020180A00200A
:104F2000E033D43E0000A9409A9999999999C93FD4
:104F30000020AC400000F03F15D83848D0F8A00061
:104F4000401C3649C1F8A000D1F8A400FBF776FC5C
:104F500006460022324BFBF70CFB0446FBF79AFC9B
:104F60002E49C1F8A4002D49D1F8A000FBF7E8FBB9
:104F700004462A48D0F8A4102046FBF791F92949A5
:104F8000C861086BFBF75AFC8046274A274BFBF7A2
:104F9000F6FA06460022264BFBF763FB0446FBF7B6
:104FA00079FC83461D4900E035E0D1F8AC00594654
:104FB000FBF776F91949C1F8AC00D1F8AC00FBF762
:104FC0003DFC04460022164BFBF74CFC15D8134859
:104FD000D0F8A800401C1149C1F8A800D1F8AC00D5
:104FE000FBF72CFC064600220D4BFBF7C2FA0446E9
:104FF000FBF750FC0949C1F8AC000849D1F8A800FA
:10500000FBF79EFB04460548D0F8AC102046FBF7A2
:1050100047F90449486300BFB8E50000D8070020FD
:105020000000F03F180A00209A9999999999C93F70
:105030000020AC4031B500249DF80000FEF7E0F8F8
:1050400008B9032038BD0121684600F01FF99DF81A
:10505000000000F0FFFA04462046F3E770B506466C
:105060000C4600253046FEF7CBF808B9284670BD3F
:105070000D2E75D00ADC0D2E73D2DFE806F0222942
:105080003139414951596169747C8800142E69D0C5
:1050900008DCA6F10E000628EED2DFE800F08890CA
:1050A00098A0A8B0202E6ED006DC152E6CD0162E3F
:1050B0006BD0172E55D1C2E0212E67D0EA2EF9D140
:1050C000D5E00225224629466F4800F0B5FAD7E020
:1050D0000225224629466C48801C00F0ADFACFE03C
:1050E0000225224629466848001D00F0A5FAC7E0BF
:1050F0000225224629466448801D00F09DFABFE043
:105100000225224629466048083000F095FAB7E0AB
:105110000225224629465C480A3000F08DFAAFE0AD
:1051200002252246294658480C3000F085FAA7E0AF
:1051300001252246294654480E3000F07DFA9FE0B2
:1051400001252246294650480F3000F075FA97E0B5
:105150000225224629464C48103000F06DFA8FE0B7
:105160001DE08CE053E002252246294646481230D5
:1051700000F062FA84E002252246294642481430B3
:1051800000F05AFA7CE062E049E050E067E0022576
:10519000224629463C48163000F04EFA70E00225BF
:1051A000224629463848183000F046FA68E00225C1
:1051B0002246294634481A3000F03EFA60E00225C3
:1051C0002246294630481C3000F036FA58E00225C5
:1051D000224629462C481E3000F02EFA50E00225C7
:1051E000224629462848203000F026FA48E00225C9
:1051F000224629462448223000F01EFA40E00225CB
:10520000224629462048243000F016FA38E00225CC
:10521000224629461C48263000F00EFA30E00225CE
:10522000224629461848283000F006FA28E00225D0
:105230002246294614482A3000F0FEF920E00225D3
:105240002246294610482C3000F0F6F918E00225D5
:10525000224629460C48303000F0EEF910E00225D5
:10526000224629460848323000F0E6F908E00125D8
:10527000224629460448883000F0DEF900E000BFED
:1052800000BF2846F3E600000411002070B5054673
:105290000C460022C0210F48FCF754FB4FF49650F7
:1052A0000D4948604FF480610B480161FDF764FDD2
:1052B00008B1FBF7D2FD0949224688682946FAF76A
:1052C000CBFF06488481828981680348FDF704FF8B
:1052D00070BD000000080140AC010020DC06002089
:1052E00010B50446042C00DB10BD064804710020F4
:1052F00004494871084600F023FA012000F00EFB33
:1053000000BFF1E72C0000202DE9F0474FF0000A24
:10531000504C514D0020514908800846407820F0FB
:105320007F00163048700846007820F0400040307A
:1053300008700846007820F03000203008700846D9
:10534000007820F00C00083008700846007820F043
:105350000300C01C0870002048800846C07820F078
:1053600080008030C8700846C07820F0400040308F
:10537000C8700846C07820F030001030C870084669
:10538000C07820F00C00001DC8700846807820F01E
:105390004000403088700846807820F0200020309F
:1053A00088700846807820F00200801C88700846CB
:1053B000807820F00100401C887000208885084615
:1053C00090F82C0020F08000803081F82C000846F6
:1053D00090F82C0020F03000303081F82C00204A6A
:1053E000204B20462946FBF7CAF806461E4A1F4BAB
:1053F000FBF7C5F8804600221D4BFBF732F9044647
:105400000D4620462946FBF700FA14498880002003
:1054100000F056F9012000F053F9172000F050F980
:10542000022000F04DF90D48008850441FFA80FA20
:105430000A48408850441FFA80FA0848808D50443A
:105440001FFA80FA0548808850441FFA80FA5046B7
:10545000BDE8F0870000580DA970774204110020C4
:105460003AFF6280CEBF883FFCA9F1D24D62803FF7
:105470000000A94010B500241548008E1549888405
:105480001348408EC8841248808E08851048C08E0C
:105490004885132000F014F9142000F011F91520AC
:1054A00000F00EF9162000F00BF90A48808C204419
:1054B00084B20848C08C204484B20648008D204441
:1054C00084B20448408D204484B2204610BD0000C0
:1054D000D80700200411002010B500240B48C08C10
:1054E0000B4948830948008D88830E2000F0E8F8B6
:1054F0000F2000F0E5F80648408B204484B20448B1
:10550000808B204484B2204610BD0000D8070020C4
:105510000411002010B50748808F07490886054808
:10552000C18F05484186202000F0CAF8212000F0F4
:10553000C7F810BDD80700200411002010B50024C2
:105540000B48C08A0B4948810948008B8881052097
:1055500000F0B6F8062000F0B3F806484089204471
:1055600084B204488089204484B2204610BD0000E3
:10557000D80700200411002010B5002447F6FF7062
:105580000549C883102000F09BF80348C08B2044D5
:1055900084B2204610BD00000411002010B5002484
:1055A0000B48C08B0B4948820948008C88820A202E
:1055B00000F086F80B2000F083F80648408A20446B
:1055C00084B20448808A204484B2204610BD000082
:1055D000D80700200411002010B5002460200949DC
:1055E000C8800881032000F06BF8042000F068F800
:1055F0000448C088204484B202480089204484B210
:10560000204610BD0411002010B50446E52C08D03A
:10561000DC2C06D05A2C04D0A52C02D0FA2C00D0B9
:1056200010BD044880F88840EA2000F049F800BF27
:10563000F6E700000411002030B50346002000BF4B
:1056400005E01D5C4C1E241A1555441CE0B288422E
:10565000F7DB30BD7FB5064600240020039000250F
:1056600003A800F06DF824E014488088002819DDB4
:105670001248828801686846FAF7EEFD0F480579FE
:1056800000200E4988802A4669463046FFF708F90F
:10569000044634B9681EC2B269463046FFF7C4F901
:1056A000044607E0322103A800F0F8FB08B1042407
:1056B00000E0D9E700BF204604B070BDDC06002042
:1056C00070B586B0064600200390049005900090C7
:1056D00001900290002400253046FDF791FD10B99D
:1056E000032006B070BD03A93046FFF7B7FC04469F
:1056F0000CB1042C01DD0320F3E746F080008DF8A7
:105700000000002505E003A8415D681C0DF80010AD
:10571000C5B2A542F7DB601CC4B221466846FBF760
:105720001AFBC043C0B20DF80400601CC4B221468D
:105730006846FFF7ABFD1920FBF746FF0020D0E7D6
:1057400010B50446FCF704F9206010BDF8B5044616
:105750000D4616462B46002280212046009600F07A
:1057600009F828B1606D40F0200060650320F8BDA5
:105770000020FCE72DE9F84F04460D4690461E46F2
:10578000DDF82890FCF7E4F8A0EB0900371AFCF7E5
:10579000DFF882462C480068C0F3CB307843009095
:1057A00045E0701C002842D0FCF7D2F8A0EB0A00BC
:1057B000B84200D2A7BB2068406820F0E000216812
:1057C00048606068B0F5827F0DD1A068B0F5004FE9
:1057D00003D0A068B0F5806F05D12068006820F084
:1057E000400021680860A06AB0F5005F0DD100BFDD
:1057F0002068006820F40050216808602068006874
:1058000040F400502168086000BF012084F8510076
:1058100000BF002084F8500000BF0320BDE8F88FCF
:10582000FFE7009800B900270098401E009020680C
:1058300080682840A84201D1012000E000204045B6
:10584000AFD10020EAE700000C0000207047000004
:105850000FB410B5044684B9BDF81020114B03995C
:105860009868FAF7F9FCBDF810100E48818182891A
:1058700081680D48FDF730FC11E0012C0FD1BDF817
:1058800010200A4B03999868FAF7E6FCBDF810104F
:1058900006488181828981680548FDF71DFC10BC9E
:1058A0005DF814FBBC06002024010020CC0600207B
:1058B00068010020014A02F8301070478808002073
:1058C0002DE9F04104460D46124EF7144FF0000842
:1058D000032C01DBBDE8F08124B1012C05D0022CA2
:1058E00009D105E00B4EF71406E00A4EB71403E0A9
:1058F000094E012700E000BF00BF15B14FF00008BE
:1059000001E04FF00108424639463046FCF71AF8EC
:1059100000BFDFE700080140000C0140022800DD65
:1059200070470249087000BFFAE700003400002009
:10593000022800DD70470249087000BFFAE7000046
:10594000240000203FB581B000250024BDF81020C0
:10595000294B0399586801F05DFD039800884CF2CB
:10596000B051884202D00298804742E003984088B4
:10597000BDF8101088421ADA039845880398048904
:1059800000200399088129460398FBF7E4F903995D
:10599000088103980089A04202D00298804728E03D
:1059A0000020009001A80FC800F082F921E00398C0
:1059B0004088BDF81010884202DD0298804718E048
:1059C00003980489002003990881BDF810100398FA
:1059D000FBF7C1F90399088103980089A04202D01E
:1059E0000298804705E00220009001A80FC800F04F
:1059F0005FF905B030BD0000140000201FB5ADF503
:105A0000825D00240DF58051B1F84C202949486889
:105A10000DA901F0FFFCBDF834004CF2B0518842F2
:105A200008D0012000900DF5805040300FC800F0E4
:105A30003FF93BE0BDF836100DF58050B0F84C0052
:105A4000814208D0012000900DF5805040300FC8F1
:105A500000F02EF92AE0BDF83C400021ADF83C10E2
:105A60000DF58050B0F84C100DA8FBF774F9ADF8A7
:105A70003C00BDF83C10A14208D0012000900DF57B
:105A8000805040300FC800F013F90FE00DF5805141
:105A9000B1F84C20886C0DA9FAF7DEFB02200090CB
:105AA0000DF5805040300FC800F002F914B00DF52C
:105AB000805D10BD140000201FB5ADF5825D00248F
:105AC0000DF58051B1F84C20214948680DA901F02D
:105AD000A1FCBDF834004CF2B051884208D003203C
